:020000040800F2
:1000000000800120B1340008753300087733000800
:10001000793300087B3300087D33000800000000BE
:100020000000000000000000000000007F33000816
:100030008133000800000000833300088533000886
:1000400001350008013500088933000895330008A0
:100050000135000801350008A1330008013500080A
:1000600001350008A73300080135000801350008F4
:100070000135000801350008013500080135000888
:100080000135000801350008013500080135000878
:100090000135000801350008013500080135000868
:1000A0000135000801350008013500080135000858
:1000B0000135000801350008013500080135000848
:1000C0000135000801350008013500080135000838
:1000D0000135000801350008AD330008013500087E
:1000E0000135000801350008013500080135000818
:1000F0000135000801350008013500080135000808
:1001000001350008013500080135000801350008F7
:1001100001350008013500080135000801350008E7
:1001200001350008013500080135000801350008D7
:1001300001350008013500080135000801350008C7
:1001400001350008013500080135000801350008B7
:1001500001350008013500080135000801350008A7
:100160000135000801350008013500080135000897
:1001700001350008013500080135000800000000C5
:080180000135000801350008FB
:1001880010B5054C237833B9044B13B10448AFF3C9
:1001980000800123237010BD04000020000000002F
:1001A8008C35000808B5034B1BB103490348AFF36E
:1001B800008008BD00000000080000208C35000801
:1001C800034613F8012B002AFBD1181A013870478F
:1001D80053B94AB9002908BF00281CBF4FF0FF31A6
:1001E8004FF0FF3000F07AB9ADF1080C6DE904CE9C
:1001F80000F006F8DDF804E0DDE9022304B07047FA
:100208002DE9F0478C460D460446089E002B51D137
:100218008A4217466DD9B2FA82FEBEF1000F0BD0A2
:10022800CEF1200C01FA0EF520FA0CFC02FA0EF7BA
:100238004CEA050C00FA0EF44FEA174A250CBCFBF1
:10024800FAF81FFA87F90AFB18CC45EA0C4508FBAF
:1002580009F3AB420AD9ED1908F1FF3280F0238186
:10026800AB4240F22081A8F102083D44ED1AA4B245
:10027800B5FBFAF00AFB105544EA054400FB09F9FE
:10028800A14509D9E41900F1FF3380F00A81A1459D
:1002980040F2078102383C44A4EB090440EA0840D4
:1002A8000021002E61D024FA0EF40023346073601C
:1002B800BDE8F0878B4207D9002E54D0002186E88C
:1002C80021000846BDE8F087B3FA83F1002940F021
:1002D8008E80AB4202D3824200F2FA80841A65EB28
:1002E80003050120AC46002E3FD086E81010BDE87B
:1002F800F08712B90127B7FBF2F7B7FA87FEBEF10C
:10030800000F34D1EB1B3A0C1FFA87FC0121B3FB19
:10031800F2F8250C02FB183345EA03450CFB08F3F9
:10032800AB4207D9ED1908F1FF3002D2AB4200F217
:10033800D1808046ED1AA3B2B5FBF2F002FB10554E
:1003480043EA05440CFB00FCA44507D9E41900F175
:10035800FF3302D2A44500F2B8801846A4EB0C047F
:1003680040EA08409DE731463046BDE8F087CEF1C7
:10037800200405FA0EF307FA0EF720FA04F83A0CEF
:1003880025FA04F448EA0308B4FBF2F14FEA1845E9
:1003980002FB11441FFA87FC45EA044501FB0CF3F4
:1003A800AB4200FA0EF409D9ED1901F1FF3080F0E3
:1003B8008A80AB4240F2878002393D44EB1A1FFA2B
:1003C80088F5B3FBF2F002FB103345EA034500FB66
:1003D8000CF3AB4207D9ED1900F1FF386FD2AB42ED
:1003E8006DD902383D44EB1A40EA01418FE7C1F16B
:1003F800200722FA07F88B4005FA01F448EA0303BC
:1004080020FA07FE4FEA134CFD404EEA040EB5FBF6
:10041800FCF94FEA1E440CFB19551FFA83F844EA0D
:10042800054509FB08F4AC4202FA01F200FA01FAA8
:1004380008D9ED1809F1FF3043D2AC4241D9A9F1EE
:1004480002091D442D1B1FFA8EFEB5FBFCF00CFBA8
:1004580010554EEA054400FB08F8A04507D9E418F2
:1004680000F1FF3529D2A04527D902381C4440EABB
:100478000940A4EB0804A0FB02894C45C6464D463A
:1004880015D312D056B1BAEB0E0364EB050404FA87
:1004980007F7CB401F43CC40376074600021BDE8AC
:1004A800F0871846F8E69046E0E6C245EAD2B8EB8F
:1004B800020E69EB03050138E4E72846D7E7404612
:1004C80091E78146BEE7014678E702383C4445E7B4
:1004D800084608E7A8F102083D442BE7704700BF2B
:1004E80000B595B04FF480730C9305230693002351
:1004F8000D930E930B9311931293139300930493FC
:100508004FF0807210230F92029301224FF4800360
:100518000192039205936A46034606A9044800F02F
:10052800EBFD003018BF012015B05DF804FB00BFDB
:100538002400002000B595B04FF480730C93062377
:10054800069341F28832002306A915480D930E93AD
:100558000F930B9311931293139300F089FDE0B955
:1005680002230093019301230393102302934FF472
:1005780080030593052306934FF0807304900F932F
:100588006A4641F2883306A9054800F0B5FD0030F7
:1005980018BF012015B05DF804FB0120FAE700BF81
:1005A800240000202DE9F0415C4C5D4B236092B0A3
:1005B800204600F041FD0546002866D1594B5A48AF
:1005C8001A6D42F480721A651A6D02F480720292F2
:1005D800029A1A6B42F480721A631A6B22F48072C0
:1005E8001A63DA6C42F01002DA64DB6C03F0100371
:1005F8000393039B4FF4006304930223059301279D
:10060800032304A90A2607930697089600F022FAFE
:100618004FF4744304A944480493069500F01AFA69
:1006280004236760A360E5604FF0807898FAA8F328
:10063800B3FA83F3013B204623616561A56100F0AD
:10064800A3FC10BB4FF4807566230B900C900D90A3
:1006580009900F901090119041F2883204A9204619
:100668000A95049300F004FD68B9992341F2883291
:1006780004A92046049300F0FBFC20B941F288301D
:10068800FFF72EFF18B1042544E0012542E0852339
:100698000B900C9009900F901090119041F28832B5
:1006A80004A920460A950493CDF834800E9700F0EB
:1006B800DFFC0028E7D141F288320DF1070120461E
:1006C80000F00CFE0028DED1FFF734FF05460028B5
:1006D800D9D181230493F02393FAA3F39DF807203B
:1006E800B3FA83F302F00F0206FA03F3134304A9E3
:1006F80041F2883220468DF8073000F0B9FC002816
:10070800C1D141F288320DF10701204600F087FD82
:100718000028B8D1284612B0BDE8F0812400002096
:10072800001000A0001002400010004810B58EB064
:100738004FF480730693EB23009301914FF44063C9
:100748004FF04071079309914FF400530A21044672
:100758000393059100230A92694641F288320A48B8
:1007680008930B930C930D9300F082FC50B941F25F
:1007780088322146044800F0B1FD003018BF01203E
:100788000EB010BD0120FBE7240000202DE9F04148
:100798008EB04FF48073CCB206931223C4F58074E4
:1007A80000934FF44063944207934FF4005328BFDB
:1007B80014468D1803934FF040720023DFF86880C9
:1007C800089307460E46099205930B930C930D93D5
:1007D80001960A94FFF7AEFE18B101200EB0BDE8ED
:1007E800F08141F2883269460F4800F041FC002848
:1007F800F3D141F288323946404600F010FD002816
:10080800EBD141F28830FFF76BFE0028E5D1264492
:1008180006F580739D42274434BFAC1B4FF48074A7
:10082800B542D5D8DAE700BF2400002000B58FB064
:100838004FF480730693202300934FF4806307934B
:100848004FF40053039300230190089309930593F1
:100858000B930C930D93FFF76DFE18B101200FB0A9
:100868005DF804FB41F288326946064800F000FC56
:100878000028F3D14FF44870FFF732FE003018BF5C
:100888000120ECE72400002038B50A4B054618681B
:100898004FF47A73B0FBF3F000F084F8044638B9EB
:1008A800024629464FF0FF3000F03CF8204638BD9C
:1008B800012038BD00000020094A136843F4807302
:1008C80010B50320136000F01BF80020FFF7DCFFD1
:1008D800044618B902F032FD204610BD0124FBE79A
:1008E80000200240024A136801331360704700BFBA
:1008F80068000020014B1868704700BF680000209E
:10090800074AD36823F4E0631B041B0C43F0BF635E
:10091800000243F4003300F4E0600343D3607047FF
:1009280000ED00E0174B30B5DC68C4F30224C4F1D5
:100938000703251D042B28BF0423062D4FF00105AE
:1009480005FA03F303F1FF338CBF033C002419407D
:10095800A14005FA04F4013C2240002842EA0102C1
:100968004FEA0212AFBF00F1604000F00F00064BE3
:10097800D2B2A5BF00F56140D2B21A5480F8002364
:1009880030BD00BF00ED00E014ED00E04209012396
:1009980000F01F0003FA00F0014B43F822007047F3
:1009A80000E100E00138B0F1807F0AD2064B074A27
:1009B8005860F02182F823100020072298601A60FE
:1009C80070470120704700BF10E000E000ED00E034
:1009D800B8B10368016C1A6822F00E021A601A682E
:1009E80022F001021A60436C012203F01C0302FA90
:1009F80003F34B60002380F8252080F82430184644
:100A080070470120704790F82520022A10B503D0BE
:100A18000422C263012010BD0268046C1168836B54
:100A280021F00E011160116821F001011160426C82
:100A3800012102F01C0201FA02F26260002480F82F
:100A4800251080F8244013B19847204610BD184659
:100A580010BD00002DE9F04F85B00B68DFF8A881C4
:100A6800674C01930023019ADA4002D105B0BDE832
:100A7800F08F0126019A9E4012EA060E00F0B1801E
:100A88004A6822F01007022F16D14FEAD30900EB6B
:100A9800890903F0070AD9F820504FEA8A0A4FF06B
:100AA8000F0C0CFA0AFC25EA0C0C0D6905FA0AF57C
:100AB80045EA0C05C9F820504FEA430C0325D0F845
:100AC80000B005FA0CF5ED4302F0030A0BEA050B3A
:100AD8000AFA0CF9013F49EA0B09012FC0F8009006
:100AE80011D8876805EA0709CF6807FA0CF747EABB
:100AF80009078760476827EA0609C2F300179F407D
:100B080047EA09074760BAF1030F07D1C76A27EA1E
:100B18000606C2F3C0079F403E43C662C66835401A
:100B28008E6806FA0CF63543C560D50059D5D8F855
:100B3800605045F00105C8F86050D8F8605023F0BF
:100B4800030606F1804605F0010506F58036039593
:100B580003F0030C039DB5684FEA8C0C0F2707FAC6
:100B68000CF7B0F1904F25EA07073CD0254DA84275
:100B78003BD005F58065A84239D005F58065A842C7
:100B880037D005F58065A84235D005F58065A842BF
:100B980033D005F58065A84214BF0725062505FA58
:100BA8000CF53D43B56025686FEA0E06D70354BFC0
:100BB80035404EEA050525606568970354BF354002
:100BC8004EEA05056560A568D70254BF35404EEA70
:100BD8000505A560E568920254BF35404EEA050553
:100BE800E56001333FE70025D9E70125D7E702256E
:100BF800D5E70325D3E70425D1E70525CFE700BFCF
:100C08000004014000040048001002402DE9F74F9D
:100C1800474CDFF824A1DFF824B100234FF0010886
:100C28004FF0030931FA03F202D103B0BDE8F08FA7
:100C380008FA03F611EA060201926AD007685A0018
:100C480009FA02F24FEAD30C174300EB8C0C076049
:100C5800DCF8207003F0070E3D464FEA8E0E0F2792
:100C680007FA0EFE25EA0E0ECCF820E0D0F808E0D0
:100C7800D2430EEA020EC0F808E0D0F804E0F643CA
:100C88000EEA060EC0F804E0D0F80CE002EA0E0204
:100C9800C260C26A1640C66223F0030606F18046A7
:100CA80006F5803603F0030EB2684FEA8E0E07FA97
:100CB8000EF7B0F1904F02EA070C2CD01D4A904273
:100CC8002BD002F58062904229D002F580629042D2
:100CD80027D002F58062904225D0504525D058454E
:100CE8000CBF0622072202FA0EF2944511D1B2680F
:100CF800019D22EA0707B7602268ED432A40226077
:100D080062682A406260A2682A40A260E2681540D0
:100D1800E560013386E70022E5E70122E3E70222E6
:100D2800E1E70322DFE70422DDE70522DBE700BF76
:100D3800000401400004004800140048001800485E
:100D48000AB18161704781627047436959404161C6
:100D58007047000008B5044B5969014202D0586138
:100D680002F0C6F808BD00BF00040140024A13683B
:100D780043F480731360704700700040024B18689A
:100D880000F4C060704700BF00700040174B1A683D
:100D9800B0F5007F02F4C0621CD1B2F5007F15D017
:100DA8001A6822F4C06242F400721A60104A11688C
:100DB80032224A430F49B2FBF1F21946013258690F
:100DC800400500D522B94B695B050DD4002070475A
:100DD800013AF4E7B2F5806F1FBF1A6822F4C062C7
:100DE80042F480621A60F1E7032070470070004007
:100DF8000000002040420F002DE9F0430446486AF5
:100E080038B1B2F1406F1FBF8B6A256803F1FF3319
:100E18002B6101F1180393E80803002B4FD02468D5
:100E2800D1F82CC0D1F830E04F6B0E684D69034300
:100E3800B9F1000F23D08868E0611343086943EAD9
:100E48000903B8F1000F0ED043EA080343EA0C0384
:100E580043EA0E033B430343C8680343334343EA6F
:100E6800854363611DE043EA0C0343EA0E033B43F9
:100E78000343334343EA85436361BDE8F083B8F134
:100E8800000F15D043EA020040EA080040EA0C00CF
:100E9800CB6840EA0E0038431843304340EA8540A7
:100EA8006061B2F1406FE8D04B68A361BDE8F083A0
:100EB800134343EA0C0343EA0E033B43D9E7B9F172
:100EC800000F1AD024688B68E36140EA0903D1F85F
:100ED8002CC0D1F830E04F6B0E694D691343B8F15F
:100EE800000FE6D043EA080040EA0C0343EA0E0389
:100EF8003B43C86833430343B1E7B8F1000F0FD051
:100F080040EA0803C86A246813430343086B034391
:100F1800486B0343C8680343486943EA8043A0E732
:100F28000028AAD0CB6A2468034313430A6B1343EF
:100F38004A6B13434A6943EA82439DE72DE9F0412E
:100F4800069D04460F461646984621688A683A4226
:100F580014BF01220022B24202D10020BDE8F08174
:100F68006B1CF3D0FFF7C6FCA0EB0800854201D349
:100F7800002DEAD1042384F83930E36B43F00103F0
:100F8800E3630120BDE8F08137B50446FFF7B2FC02
:100F98000546002C49D094F83830012B47D001235E
:100FA80084F8383094F8392002F0FF033AB984F80D
:100FB8003830204602F096F841F2883323642068DE
:100FC800A1680268236C013922F4706242EA0122A6
:100FD80002602021009300222B462046FFF7AEFF37
:100FE800F0B9226865681168E36821F07F4143EA37
:100FF800056321F010010B431360A169636955680B
:101008000B43216943EA01430A4929400B435360D2
:10101800136843F0010313600123E06384F8393057
:10102800002384F8383003B030BD0120FBE70220EC
:10103800F9E700BFFEF8E0FF10B50446A0B190F84C
:101048003830012B12D00268012380F83830136839
:1010580023F00103136002F07BF80020E06384F8BA
:10106800390084F8380010BD012010BD022010BDE1
:101078002DE9F34704468A469146FFF73BFC94F86E
:101088003830012B804635D0012384F8383094F865
:101098003960F6B29E424FF0020729D10022E2637E
:1010A800034684F83970CDF8009020212046FFF7D8
:1010B80045FF0546A8B9024651462046FFF79CFE63
:1010C800DAF824305BB9CDF8009043463246394609
:1010D8002046FFF733FF054618B92368DF6084F818
:1010E8003960002384F83830284602B0BDE8F0871C
:1010F8003D46F6E70225F7E72DE9F743044698460B
:1011080089461646FFF7F6FB94F83830012B074658
:1011180042D0012384F8383094F83950EDB29D421A
:1011280038D142230022E263CDF8008084F83930B8
:10113800202103462046FFF701FF28BB23683268B9
:101148009A6272685A62B268DA621968326921F47E
:10115800400142F480020A431A60F368C9F8283053
:101168004FF0006249462046FFF746FECDF8008062
:101178003B462A4608212046FFF7E0FE20B92368AF
:101188000822DA6084F83950002384F8383003B034
:10119800BDE8F0830220F7E70220F8E737B50446F8
:1011A800FFF7A8FB054694F8390010F0020034D088
:1011B800002384F8383023681A6852070BD51A6858
:1011C800606B22F004021A60FFF702FC18B1E36BAF
:1011D80043F00403E3632268136843F002031360D7
:1011E800236C009301222B4602212046FFF7A6FE1E
:1011F80098B923680222DA60236C009302462B46D2
:1012080020212046FFF79AFE38B92268536923F057
:1012180040635361012384F8393003B030BD2DE9B0
:10122800F341044688461746FFF764FB94F83830C4
:10123800012B064650D0012384F8383094F8390041
:101248002568C0B2984245D10023E363B8F1000F86
:101258003BD0122384F839302B69013363622B6940
:10126800C4F81C80013323626B6923F040636B610F
:10127800636AB3B900973346012202212046FFF77B
:101288005DFE28B923680222DA602046FFF786FF50
:10129800012384F83930002384F8383002B0BDE8DF
:1012A800F08100973346012204212046FFF746FECD
:1012B8000028EDD1E3691B7885F82030E369013314
:1012C800E361636A013B6362D2E7E36B43F00803BF
:1012D800E363E0E70220DEE70220DFE72DE9F341E0
:1012E800044617468846FFF705FB2568AA6994F85F
:1012F8003830012B064652D0012384F8383094F850
:101308003900C0B2984248D10023E363B8F1000F16
:101318003ED0222384F839302B69013323632B69AB
:10132800C4F828800133E3626B6923F0406343F01B
:1013380080636B61AA61236BB3B9009733460122BE
:1013480002212046FFF7FAFD28B923680222DA6055
:101358002046FFF723FF012384F83930002384F85F
:10136800383002B0BDE8F0810097334601220621EB
:101378002046FFF7E3FD0028EDD1A36A95F8202069
:101388001A70A36A0133A362236B013B2363D2E77C
:10139800E36B43F00803E363E0E70220DEE70220A3
:1013A800DFE7000037B51E4DAB6DDA00044618D5EF
:1013B800FFF7E4FCB0F5007F23D1802C29D9A02CBD
:1013C8008CBF02200120174A136823F00703034348
:1013D8001360136803F00703181A18BF012003B03D
:1013E80030BDAB6D43F08053AB65AB6D03F08053FC
:1013F8000193019BFFF7C2FCAB6D23F08053AB65F3
:10140800D8E7802C07D808D0A4F170035842584177
:10141800D9E70020D7E70320D5E70220D3E700BFAC
:101428000010024000200240254B9A68D96812F04B
:101438000C0205D00C2A15D101F00301012918D19D
:1014480019682048090755BFD3F894101968C1F3E3
:101458000321C1F3031150F8210082B30C2A09D0EB
:1014680000207047042A29D0082A174818BF0020EE
:1014780070470020D968DA6801F00301C2F302124C
:10148800022902F1010205D0032912D0D968C1F35B
:10149800062103E0D9680D48C1F30621DB68B0FBDB
:1014A800F2F0C3F34163013348435B00B0FBF3F050
:1014B8007047D9680448C1F30621EFE7034870472D
:1014C80000100240F435000800127A000024F400ED
:1014D8002DE9F743054618B9012003B0BDE8F083AC
:1014E800A54C0368A668E768DB0606F00C0607F05B
:1014F80003073CD51EB10C2E63D1012F61D123689F
:10150800980702D5AB69002BE6D02368286A19072B
:1015180056BFD4F8943023681B0903F0F0038342C4
:101528003AD2FFF73FFF0028D6D1236843F00803DB
:10153800236023682A6A23F0F00313432360636857
:10154800EA6923F47F4343EA02236360FFF76CFFF1
:10155800A3688A4AC3F30313D35C03F01F03D8407C
:10156800874B18600020FFF78FF90028B5D12B684A
:10157800D8075DD42B68990700F19C802B68180761
:1015880000F1D0802B68590700F1FC80AB6A002B72
:1015980040F065810020A0E7236843F0080323603A
:1015A800236823F0F003034323606368EA6923F4A4
:1015B8007F4343EA02236360FFF7F4FE0028C5D0A7
:1015C8008AE7AB691BB3236843F001032360FFF785
:1015D80091F9804623689A0711D5236843F00803D8
:1015E800236023682A6A23F0F003134323606368A7
:1015F800EA6923F47F4343EA02236360B7E7FFF70E
:1016080079F9A0EB08000228E4D9032065E72368EC
:1016180023F001032360FFF76DF9804623689B07D9
:10162800A5D5FFF767F9A0EB08000228F6D9ECE783
:10163800082E03D00C2E08D1032F06D123689A0355
:1016480098D56B68002B95D146E76B68B3F5803F5A
:1016580010D1236843F480332360FFF74BF98046A9
:1016680023689B0386D4FFF745F9A0EB080064289C
:10167800F6D9CAE7B3F5A02F04D1236843F4802331
:101688002360E6E7226822F480322260226822F48E
:1016980080222260002BE0D1FFF72CF980462368D6
:1016A80098037FF567AFFFF725F9A0EB08006428DA
:1016B800F5D9AAE7042E03D00C2E10D1022F0ED193
:1016C8002368590503D5EB68002B3FF405AF636821
:1016D8002A6923F0F85343EA026363604EE7EB6834
:1016E8007BB1236843F480732360FFF703F907464F
:1016F80023685A05EBD4FFF7FDF8C01B0228F7D979
:1017080083E7236823F480732360FFF7F3F8074621
:1017180023685B057FF532AFFFF7ECF8C01B0228A2
:10172800F6D972E76B699BB1D4F8943043F00103A2
:10173800C4F89430FFF7DEF80746D4F894309A07D7
:101748003FF520AFFFF7D6F8C01B0228F5D95CE7B4
:10175800D4F8943023F00103C4F89430FFF7CAF8A2
:101768000746D4F894309B077FF50CAFFFF7C2F813
:10177800C01B0228F5D948E700100240DA350008F6
:1017880000000020A36DD80029D4A36D43F0805336
:10179800A365A36D03F080530193019B4FF00108EB
:1017A8005D4F3B68D9051DD5AB68012B2BD1D4F80B
:1017B800903043F00103C4F89030FFF79BF841F2F2
:1017C80088390746D4F890309B0742D5B8F1000F06
:1017D8003FF4DCAEA36D23F08053A365D6E64FF04B
:1017E8000008DDE73B6843F480733B60FFF782F84D
:1017F80081463B68DA05D7D4FFF77CF8A0EB0900EF
:101808000228F6D901E7052B06D1D4F8903043F029
:101818000403C4F89030CAE7D4F8902022F00102FB
:10182800C4F89020D4F8902022F00402C4F8902044
:10183800002BC2D1FFF75EF841F288390746D4F889
:1018480090309807C2D5FFF755F8C01B4845F6D920
:10185800DBE6FFF74FF8C01B4845B3D9D5E60C2E99
:101868003FF43AAE022B236823F08073236037D10C
:10187800FFF740F80646236899012BD46A6BEB6A98
:1018880043EA02232A6B013A43EA0213AA6B1209BC
:1018980043EA4243EA6B5208013A43EA42532A6C4C
:1018A8005208013A43EA4263E360236843F08073D5
:1018B8002360E36843F08073E360FFF71BF8054695
:1018C80023689A013FF566AEFFF714F8401B02281B
:1018D800F6D99AE6FFF70EF8801B0228CBD994E6D2
:1018E800236813F0205F02BFE36823F00303E3607B
:1018F800E36823F0887323F48033E360FEF7FAFF8C
:10190800054623689B017FF545AEFEF7F3FF401BB4
:101918000228F6D979E600BF007000402DE9F041B1
:101928000E46044610B90120BDE8F081404A13680C
:1019380003F007038B4229D32368D90731D42168E0
:101948008A075BD43A4A136803F007039E425DD3C3
:1019580011F0040F374D64D10B0706D5AB68226927
:1019680023F4605343EAC203AB60FFF75DFDAB6845
:10197800314AC3F30313BDE8F041D35C03F01F03FE
:10198800D8402E4B18600020FEF77EBF136823F066
:1019980007030B431360136803F007039942C2D18E
:1019A800CAE76268234D032A2B681BD113F0007F16
:1019B800B9D0AB6823F003031343AB60FEF79AFF7B
:1019C80041F288380746AB68626803F00C03B3EB52
:1019D800820FB4D0FEF78EFFC01B4045F3D9032019
:1019E800BDE8F081022A02D113F4003FE0E712B902
:1019F80013F0020FDCE713F4806FD9E70D4AA068F3
:101A0800936823F0F003034393609BE7136823F084
:101A1800070333431360136803F007039E4282D120
:101A280096E7AB68E26823F4E0631343AB6093E79F
:101A38000020024000100240DA35000800000020B3
:101A4800054B064A9B68C3F30223D35C044A10681B
:101A580003F01F03D840704700100240EA35000821
:101A680000000020054B064A9B68C3F3C223D35CE1
:101A7800044A106803F01F03D84070470010024062
:101A8800EA35000800000020F8B5454BDA6812F086
:101A9800030F05460E461C4600682AD0DA6802F095
:101AA800030282423CD1002A3AD0DB686A68C3F359
:101AB80002130133934233D1236823F080632360F8
:101AC800FEF718FF074623681A0132D4AF68002EC4
:101AD80036D0012E50D12269286922F4C00240086C
:101AE80022F4FE42013842EA072242EA40522261C9
:101AF80032E0022810D0032814D0012810D11B6826
:101B08009F0738D5E3686A6823F07303013A1843DE
:101B180040EA0210E060CFE71B6813F4806FF1D150
:101B28000120F8BD1A689103ECD41B6813F4802FC8
:101B3800F5E7FEF7DFFEC01B0228C4D90320F8BD75
:101B48002169EB6821F41F3121F4407141EA072132
:101B58001B0941EA43412161236843F08063236004
:101B6800FEF7C8FE064623681B0113D52369AA6938
:101B7800134323610020F8BD2369686923F0C0631B
:101B8800400823F4FE43013843EA072343EA40634D
:101B98002361E1E7FEF7AEFE801B0228E3D9CDE71B
:101BA80000100240F8B53D4BDA6812F0030F054605
:101BB8000E461C46006828D0DA6802F0030282420A
:101BC8003AD1002A38D0DB686A68C3F302130133BC
:101BD800934231D1236823F080532360FEF78AFEB5
:101BE800074623689A0030D4A868002E34D0636969
:101BF800296923F0C063490823F4FE43013943EA05
:101C0800002343EA4163636132E0022810D00328CD
:101C180014D0012810D11B689F0738D5E3686A687B
:101C280023F07303013A184340EA0210E060D1E759
:101C38001B6813F4806FF1D10120F8BD1A68910375
:101C4800ECD41B6813F4802FF5E7FEF753FEC01B96
:101C58000228C6D90320F8BD6269EB6822F41F3256
:101C680022F4407242EA00221B0942EA43426261BE
:101C7800236843F080532360FEF73CFE0646236842
:101C88009B0005D563696A69134363610020F8BD49
:101C9800FEF730FE801B0228F1D9DBE70010024076
:101CA8002DE9F347066816F40066044624D0416E11
:101CB800B1F5800F2CD002D8C1B101261CE0B1F5D6
:101CC800000F0DD0B1F5400FF7D14D4A616ED2F833
:101CD800883023F440030B43C2F8883000260BE019
:101CE800474AD36843F48033D360EEE70430FFF704
:101CF800CBFE06460028E8D02368D80406D5A16E96
:101D0800B1F1807F74D008D8A9B10126354621E009
:101D180000212030FFF746FFEBE7B1F1007F04D048
:101D2800B1F1407FF1D1354609E0354AD36843F433
:101D38008033D360F7E7201DFFF7A6FE0546002D88
:101D48005CD12F4AA16ED2F8883023F040730B4340
:101D5800C2F888302368990340F14F81284FBB6D42
:101D6800DA0040F176814FF00008DFF89890D9F852
:101D7800003043F48073C9F80030FEF7BBFD82469B
:101D8800D9F80030DB053FD5002D44D1D7F8903085
:101D980013F4407315D0D4F88420934211D0D7F8A7
:101DA8009030D7F8902042F48032C7F89020D7F8C6
:101DB800902023F4407322F48032C7F89020C7F8AB
:101DC8009030D80709D5FEF795FD41F288390546C8
:101DD800D7F89030990740F10981D7F89030D4F8B6
:101DE800842023F440731343C7F89030354612E03B
:101DF800002104F12000FFF7D5FE9FE72E46A9E752
:101E08000010024000700040FEF774FDA0EB0A00CD
:101E18000228B5D90325B8F1000F03D0BB6D23F014
:101E28008053BB652368DA0708D59049A06BD1F8C1
:101E3800882022F003020243C1F888209F0708D5B2
:101E48008A49E06BD1F8882022F00C020243C1F8DD
:101E580088205E0708D58549206CD1F8882022F0B3
:101E680030020243C1F88820180708D57F49606C02
:101E7800D1F8882022F0C0020243C1F88820D90690
:101E880008D57A49A06CD1F8882022F44072024320
:101E9800C1F888209A0608D57449E06CD1F88820E2
:101EA80022F440620243C1F888209F0508D56F4993
:101EB800E06DD1F8882022F440220243C1F888203E
:101EC8005E0508D56949206ED1F8882022F44012B1
:101ED8000243C1F88820580608D56449206DD1F816
:101EE800882022F440520243C1F88820190608D5F8
:101EF8005E49606DD1F8882022F440420243C1F85F
:101F08008820DA0508D55949A06DD1F8882022F42F
:101F180040320243C1F888209B040FD5534AE16E32
:101F2800D2F8883023F040630B43B1F1006FC2F858
:101F3800883064D1D36843F48013D36023681F03C7
:101F48000FD54A4A216FD2F8883023F040630B43FB
:101F5800B1F1006FC2F888305CD1D36843F48013C4
:101F6800D36023685E030FD5404A616FD2F888308A
:101F780023F040630B43B1F1006FC2F8883054D1AD
:101F8800D36843F48013D3602368580412D53749C3
:101F9800A26FD1F8883023F040531343B2F1805F29
:101FA800C1F888304CD10221201DFFF76DFD0028B3
:101FB80018BF05462268110408D52C49E06FD1F8EE
:101FC800883023F080430343C1F88830D30309D510
:101FD800264AD4F88010D2F8883023F000430B4307
:101FE800C2F88830284602B0BDE8F087FEF782FCC8
:101FF800401B48457FF6ECAE0CE7354612E7B1F1D9
:10200800806F9BD10121201DFFF73EFD002818BFDE
:10201800054693E7B1F1806FA3D10121201DFFF799
:1020280033FD002818BF05469BE7B1F1806FABD19F
:102038000121201DFFF728FD002818BF0546A3E74A
:10204800B2F1005FB6D1022104F12000FFF7AAFD2A
:10205800ADE7BB6D43F08053BB65BB6D03F08053A8
:102068000193019B4FF001087FE600BF001002407A
:10207800024A136843F004031360704700100240DB
:10208800026838B5D36823F0A003D3600446FEF78E
:1020980031FC05462368DB689B0601D5002038BD66
:1020A800FEF728FC401BB0F57A7FF3D9032038BD32
:1020B80038B50368DA685206044601D5002038BDF1
:1020C8004FF0FF32DA60FEF715FC05462368DB683F
:1020D8005B06F3D4FEF70EFC401BB0F57A7FF5D90A
:1020E800032038BD38B50446D8B190F8213003F044
:1020F800FF021BB980F8202001F0A4F8022384F81D
:1021080021302368CA225A6253225A622046FFF7B6
:10211800CFFF2368054638B1FF225A62042384F8AA
:1021280021300125284638BD9A68206922F4E0024A
:1021380022F040029A60626899680243A0690243EB
:102148000A439A60E2681A611A69A16842EA014280
:102158001A61DA6822F08002DA609B689B0605D46F
:102168002046FFF78DFF08B12368D5E7236860692B
:10217800DA6C22F00302DA64E269D96C02430A439A
:10218800DA64FF225A62012384F82130CAE7002367
:10219800092803D840EA0310C0B270470A3801334F
:1021A800C0B2F5E7F8B590F82030012B05464FF09E
:1021B800020634D0012380F8203080F821604B7863
:1021C800C8788E780C78002A4ED1DA0603D523F029
:1021D80010030A334B70FFF7DAFF07464878FFF71A
:1021E800D6FF02463046FFF7D2FF40EA443040EAC5
:1021F800074040EA02242B68CA225A6253225A62D4
:102208002846FFF755FF2B68064650B1FF225A6251
:10221800042385F82130002385F820300126304634
:10222800F8BD24F07F4424F0C0045C60DA6822F032
:102238008002DA609B689B060CD42846FFF720FFD3
:1022480040B12B68FF225A62042385F8213085F8B3
:102258002060E3E72B68FF225A62012385F82130CA
:10226800002385F82030DAE71B0243EA00403043B8
:1022780040EA4434BFE790F82030012B2DE9F041C3
:1022880005460E4690464FF0020717D0036880F8BF
:102298002170CA22012480F820405A6253225A62CF
:1022A800FFF706FF2B68074658B1FF225A6204233E
:1022B80085F82130002385F8203001273846BDE80D
:1022C800F08130787478B1789B68B8F1000F38D114
:1022D8005A0658BFF770FFF75AFF02462046FFF725
:1022E80056FF04460846FFF752FFF37840EA83504A
:1022F80040EA024040EA04202B6800F07F3020F0DA
:10230800FE4018609A68306922F480229A60F26868
:10231800996802430A439A60DA6822F08002DA6018
:102328009C6814F0200418D12846FFF7A9FEA0B134
:102338002B68FF225A62042385F8213085F8204053
:10234800BBE75B064FEA042458BFF77044EA004035
:10235800F478084340EA8450CEE72B68FF225A629B
:10236800012385F82130002385F82030A6E770473F
:1023780090F82030012B2DE9F04104460E46154611
:102388004FF002003DD0012384F82030236884F800
:102398002100CA225A6253225A629B685A0532D4D3
:1023A8002268936823F480639360D368DBB263F494
:1023B8009063D360FEF79EFA80462368DF6817F0C3
:1023C800040738D05E619A6822F007022A439A60AF
:1023D800214A516841F480115160916841F480119B
:1023E80091609A6842F480429A609A6842F48062E6
:1023F8009A60FF225A620020012384F8213084F871
:102408002000BDE8F081FEF775FA07462368DB680F
:102418005B07C5D5FEF76EFAC01BB0F57A7FF5D914
:102428002368FF225A620320002384F8210084F8DD
:102438002030BDE8F081FEF75DFAA0EB0800B0F5AA
:102448007A7FBAD92368FF2203205A6284F82100D0
:1024580084F82070BDE8F081000401407047000056
:102468000A4B4FF4801210B55A610268D3685B05B5
:10247800044606D5D368DBB263F49063D360FFF7F4
:10248800EDFF012384F8213010BD00BF0004014096
:1024980090F82030012B30B54FF0020360D080F85F
:1024A80021308B68012280F820200A680BB1530084
:1024B8008B60CB6893B10023D507CB6044BF4FF442
:1024C8000033CB60140742BFCB6843F48013CB6062
:1024D800930642BFCB6843F40003CB600B6993B10A
:1024E8000023D5070B6144BF4FF480230B61140709
:1024F80042BF0B6943F400130B61930642BF0B699B
:1025080043F080730B614B688C6813432343CC689A
:1025180023430C6923434C6923438C692343CC69C7
:1025280023430C6A496A23430B4304680D49256C0D
:10253800114341EA420225EA02022264226C134353
:102548002364094B1A6842F400221A609A6842F41C
:1025580000229A60012380F82130002380F820307F
:10256800184630BD84FFFF010004014070477047E2
:1025780070470000274B4FF4002210B55A610368DA
:102588009A68120404460AD5DB681B0507D5FFF7CD
:10259800EEFE2268D368DBB263F40863D360226876
:1025A8001D4B116C0B4053B1D368980407D5D36801
:1025B800DBB263F40253D3602046FFF7D7FF2268EB
:1025C800164B116C0B4053B1D368590407D5D36827
:1025D800DBB263F48143D3602046FFF7C8FF22686B
:1025E8000F4B116C0B4083B1D3681B040DD5D36816
:1025F800DBB243F07F4343F47F0343F4FE4343F0ED
:102608007F03D3602046FFF7B3FF012384F821300E
:1026180010BD00BF000401400400010004000800D0
:102628000400400070B5044600284AD000238362A5
:1026380090F85D3003F0FF021BB980F85C2000F0D1
:102648004BFE0223216884F85D300B68E26823F0B2
:102658004003B2F5E06F0B604FF000032ED9184627
:10266800B2F5706F18BFA362236B2BB9B2F5E06F98
:102678008CBF022301232363A6686368A5693343DB
:102688002669334366693343E6693343266A33432D
:10269800A66A334305F4007633430B60636A1A4332
:1026A800636B2D0C1A4305F004052A4302430123EA
:1026B80000204A60206684F85D3070BD4FF4805079
:1026C800D0E7012070BD03681A6822F490721A607E
:1026D8009A6822F001029A60202380F87230002361
:1026E80003667047704770470368DA69196870B500
:1026F800160704469D680AD1960664D58E0662D5EB
:10270800036E002B00F08380BDE87040184715F079
:10271800010002D111F4907F55D0D50707D5CE0519
:1027280005D501251D62656F45F0010565679507AB
:1027380006D528B102251D62656F45F00405656759
:10274800560706D528B104251D62656F45F00205B8
:102758006567150707D58E0600D420B108201862D2
:10276800636F03436367636F002B50D0950605D5ED
:10277800880603D5236E0BB120469847636F190767
:10278800204604D423689D6815F0400517D0FFF74C
:102798009AFF23689A6852060DD59A68E06E22F06F
:1027A80040029A6038B11A4B8363FEF72CF970B374
:1027B800E06E836BA8E72046FFF795FF70BDFFF733
:1027C80092FF656770BDD60209D5680207D54FF438
:1027D800801220461A62BDE8704000F0FDBA160665
:1027E80005D50D0603D5636E8BB120468CE75006E0
:1027F8000DD54A060BD51A6822F040021A6020232C
:1028080084F87130002363662046FFF76BFF70BDC4
:102818001D28000808B5806A0023A0F85A30A0F8DF
:102828005230FFF760FF08BD0268C169F8B5044679
:10283800836800691568034360690343BA480B431A
:102848002840034313605368E06823F4405303436C
:102858005360B64BA0699A421CBF236A1843936819
:1028680023F4306303439360B14B9A4219D103F5C3
:102878005843B04AD3F8883003F00303B1F5004F4A
:10288800D35C40F03881082B00F28F80DFE813F02A
:102898001A01CA00F9008D0014018D008D008D0009
:1028A8003600A54B9A4207D103F5E633A34AD3F87D
:1028B800883003F00C03E1E7A14B9A4223D103F5DA
:1028C800E433D3F8883003F03003102B00F0F180A4
:1028D8000BD8002B00F0F380B1F5004F4FF0010248
:1028E8004FF0000300F0F880A8E0202B00F0C6802D
:1028F800302BF1D1B1F5004F40F0B8806068430843
:1029080003F58033C3E08F4B9A421ED103F5E233BF
:10291800D3F8883003F0C003402B00F0BB800AD8FE
:102928007BB9824B9A4240F0CA80FFF789F80023AE
:10293800B0BB02463AE0802B00F09D80C02B00F02F
:10294800B0807A4B9A42C7D12FE07F4B9A4211D17F
:1029580003F5E033D3F8883003F44073B3F5807F90
:1029680000F09880DCD9B3F5007F00F08480B3F5DF
:10297800407FE4E76D4B9A42AED103F5C833D3F8F4
:10298800883003F44063B3F5806F00F08380C7D9C3
:10299800B3F5006F6FD0B3F5406FD0E76B480223F3
:1029A800626802EB4201814205D9012200232366B5
:1029B80063661046F8BDB0EB023FF6D8082B2ED858
:1029C800DFE803F0052D1C2D242D2D2D2700FFF702
:1029D80037F862684FF4807156080027E1FB0067FA
:1029E800002330463946FDF7F3FB0022584BA0F58B
:1029F80040719942D9D82368D860D7E75548550817
:102A080000230021401941F10001ECE7FEF70CFD1D
:102A1800DFE750080021002310F50000F3E701224A
:102A28000020E3E7FFF71EF84EE0FFF709F86268B9
:102A380000EB5203B3FBF2F39BB20022A3F11000A8
:102A48004FF6EF718842B0D82168CB60AEE7FFF748
:102A580009F8ECE76068430803F5740303F51053BD
:102A6800B3FBF0F3E8E7FEF7DFFCE0E76068430854
:102A780003F50043F4E72D4B9A428FD0B1F5004F90
:102A8800E8D16068430803F1F47303F59043B3FB9E
:102A9800F0F31FE0254B9A420BD1FEF7C5FC042347
:102AA80046E7224B9A427FF425AF4FF400400823B3
:102AB80076E7B1F5004FD6D1FEF7B6FC04E0B1F5E4
:102AC800004FB2D1FEF7BCFF61684A0802EB400331
:102AD800B3FBF1F39BB20022A3F110004FF6EF71A4
:102AE80088423FF662AF23F00F012068C3F3420328
:102AF8000B43C3605AE7082B3FF657AF01A252F8C1
:102B080023F000BF332A0008572A00085D2A00086E
:102B1800B32900086F2A0008B3290008B329000860
:102B2800B3290008752A0008F369FFEF0080004008
:102B380000380140A435000800440040A8350008CA
:102B480000480040004C0040005000400024F400C1
:102B5800FFFC0F00000024F4436ADA0710B506D51D
:102B68000168846A4A6822F4003222434A609C075A
:102B780006D50168C46A4A6822F4803222434A6052
:102B8800590706D50168046B4A6822F4802222435B
:102B98004A601A0706D50168446B4A6822F4004265
:102BA80022434A60DC0606D50168846B8A6822F4F1
:102BB800805222438A60990606D50168C46B8A68E8
:102BC80022F4005222438A605A060FD50168046C29
:102BD8004A6822F480122243B4F5801F4A6005D166
:102BE8004A68446C22F4C00222434A601B0606D598
:102BF8000268816C536823F400230B43536010BDB3
:102C08002DE9F041069D04460F4616469846216870
:102C1800CA6937EA02030CBF01220022B24202D07D
:102C28000020BDE8F0816B1CF2D09DB923681A68BA
:102C380022F4D0721A609A6822F001029A60202366
:102C480084F8713084F87230002384F870300320DF
:102C5800BDE8F081FDF74EFEA0EB08008542D6D214
:102C6800E4E72DE9F3411F4690F87130202B044624
:102C78000D4690464AD1002946D0002A44D090F803
:102C88007030012B42D0012380F870300023436755
:102C9800212380F87130FDF72DFEA4F850800646F8
:102CA800A4F85280B4F85220009792B2334652B931
:102CB80040212046FFF7A4FF58B9202384F871303B
:102CC80084F8700006E0002280212046FFF798FF74
:102CD80018B1032002B0BDE8F081A3682268B3F5FB
:102CE800805F0DD123695BB935F8023BC3F3080354
:102CF8001385B4F85230013B9BB2A4F85230D1E7A7
:102D08002B7813850135F4E70120E3E70220E1E79A
:102D180073B5044600264667FDF7ECFD23681B687B
:102D28001A07054617D423681B685B070AD56FF096
:102D38007E43009300222B464FF480012046FFF784
:102D48005FFFA0B92023002084F8713084F8700058
:102D580084F872300CE06FF07E43009332460346ED
:102D68004FF400112046FFF74BFF0028DBD003206B
:102D780002B070BD10B5044660B390F8713003F02E
:102D8800FF021BB980F8702000F054FB226824234E
:102D980084F87130136823F0010313602046FFF7AD
:102DA80043FD012816D0636A13B12046FFF7D4FE0D
:102DB80023685A6822F490425A609A6822F02A02DC
:102DC8009A601A6842F0010220461A60BDE8104075
:102DD800FFF79EBF012010BD704700002DE9F041AC
:102DE80014228AB00DEB0200002100F0BAFB3C4B24
:102DF8003C4FDA6C3C4EDFF8F48042F00402DA64AF
:102E0800DA6C02F004020092009ADA6C42F00102D5
:102E1800DA64DA6C02F001020192019ADA6C42F08B
:102E28000202DA64DA6C02F002020292029ADA6CA6
:102E380042F01002DA64DA6C02F010020392039A8C
:102E4800DA6C42F00802DA64DB6C03F008030493DE
:102E5800384600220421049BFDF772FF0022304609
:102E68004FF48071FDF76CFF0024012505A94FF090
:102E780090400595CDF818800794FDF7EBFD0823E1
:102E8800059305A902234FF090400793CDF81880C9
:102E9800FDF7E0FD042305A9384605930695079438
:102EA8000894FDF7D7FD4FF4807305A930460593C4
:102EB800069507940894FDF7CDFD22462146062085
:102EC800FDF730FD0620FDF761FD22462146092069
:102ED800FDF728FD0920FDF759FD0AB0BDE8F0818E
:102EE80000100240000400480010004800001110C3
:102EF800012802D1044B18707047082802BF034B01
:102F080001221A70704700BF200000202100002015
:102F180010B5B8B014244422002105A800F021FB04
:102F280022460021684600F01CFB0021882216A8D2
:102F380000F017FBFDF71AFF1C4AD2F8903023F077
:102F48001803C2F89030012307930B931093119341
:102F58006022282305940D9200240222129305A8CA
:102F680007230F921393149215920C94FEF7B0FA5C
:102F78000F220421032368468DE80C000294039471
:102F88000494FEF7CBFC4FF00213169316A84FF4E7
:102F9800807337932594FEF783FE4FF40070FDF796
:102FA800F5FEFFF765F838B010BD00BF001002400D
:102FB80080B5ADF5567D3222002101A800F0D1FA86
:102FC8004FF4C87200210EA800F0CBFA4FF4C87273
:102FD8000021342372A80E9300F0C3FA10238DF851
:102FE80003302A4D2A4FFDF767FCFFF791FFFFF7E3
:102FF800F5FE00F05DF800F049F900F0FDF900F089
:10300800BDF8FDF7CFFA234B40F6FF721A632E4640
:103018002C78E4B2012C2BD14FF480713846FDF79F
:1030280094FE2046FDF702FC0E9C642221460DF119
:103038000300FDF7ABFB642221460DF10300FDF709
:1030480075FB4FF4807272A90EA800F07BFAD0B914
:10305800114901A800F08DFA01A8FDF7B1F84FF465
:10306800805382B201A90D48FFF7FBFD002333709E
:103078000B4C2378012BCBD104210A48FDF765FEC0
:1030880000232370C4E70849E3E700BF20000020BD
:1030980000100048001000A0B535000838010020D5
:1030A8002100002000040048C335000870470000D4
:1030B8000A480B4A08B5FF2380E80C0000230122C8
:1030C8008260C360026143618361FDF75DFF18B1EF
:1030D800BDE80840FFF7EABF08BD00BF6C0000204C
:1030E800001000A010B5044688B01422002103A8DF
:1030F80000F037FA2268144B9A4222D103F1204398
:1031080003F5003303A91A6D104842F480721A655A
:103118001A6D02F480720192019ADA6C42F0100280
:10312800DA64DB6C03F010030293029B4FF47C43D8
:10313800039302230493032306930A230793FDF7BB
:1031480089FC08B010BD00BF001000A000100048A6
:103158000268074B9A4209D1064A0748136D23F4BF
:10316800807313654FF47C41FDF750BD704700BF75
:10317800001000A0001002400010004810B590B0E8
:1031880000241422002101A800F0EBF9282221468E
:1031980006A8009400F0E5F92848294B046180E866
:1031A80018007F238360FF23C36044618461C46186
:1031B800FEF798FF08B1FFF779FF012201A91F4820
:1031C8008DF804408DF805408DF806400494059468
:1031D800FFF751F808B1FFF769FF0122002369469C
:1031E80016488DF800208DF801208DF802208DF802
:1031F8000330FEF7D7FF08B1FFF758FF0422114646
:103208000E48FFF7B5F808B1FFF750FF0123069302
:103218004FF4803307930023089309930A930B9381
:103228000C930D930E9306A9802304480F93FFF780
:103238002FF908B1FFF73AFF10B010BDB000002019
:103248000028004008B502680E4B9A4218D10E4A71
:10325800D2F8903043F40043C2F89030002211466F
:103268000220FDF75FFB0220FDF790FB0022032000
:103278001146FDF757FB0320BDE80840FDF786BB64
:1032880008BD00BF00280040001002401048114946
:1032980008B54FF440724FF4827380E80A00C260A8
:1032A80000234FF400728360036143618261C3614C
:1032B800036243628362072203630823C262436393
:1032C800FFF7B0F918B1BDE80840FFF7EFBE08BD39
:1032D800D40000200030014010B5044688B0142204
:1032E800002103A800F03DF92268134B9A4220D12F
:1032F80003F5604303A91A6E42F480521A661A6EE7
:1033080002F480520192019ADA6C42F00102DA6406
:10331800DB6C03F001030293029BE0230393022377
:103328000493032306934FF0904005230793FDF77A
:1033380091FB08B010BD00BF003001400A4B1A6E67
:1033480042F001021A661A6E82B002F0010200927F
:10335800009A9A6D42F080529A659B6D03F08053F3
:103368000193019B02B07047001002407047FEE7CE
:10337800FEE7FEE7FEE7704770477047FDF7B2BA11
:103388000148FFF7F7B800BFB00000200148FFF779
:1033980067B800BFB00000200120FDF7DBBC0820A3
:1033A800FDF7D8BC0148FFF79FB900BF38010020DE
:1033B8000F49D1F8883043F47003C1F888300D4BB9
:1033C8001A68002042F001021A6098601A6822F018
:1033D800A85222F410221A604FF48052DA601A6858
:1033E80022F480221A6098614FF000638B60704766
:1033F80000ED00E00010024008B50C480C4B4FF4FB
:10340800E13E80E808400C2200238360C36003612A
:1034180042618361C36103624362FFF7ABFC18B189
:10342800BDE80840FFF742BE08BD00BF38010020D4
:103438000044004010B5044688B01422002103A8B7
:1034480000F08FF82268164B9A4227D103F5E6332D
:1034580003A99A6D134842F400329A659A6D02F4F2
:1034680000320192019ADA6C42F00802DA64DB6CED
:1034780003F008030293029B60230393022304933F
:103488000323069307230793FDF7E4FA0022262077
:103498001146FDF747FA2620FDF778FA08B010BD67
:1034A80000440040000C0048DFF834D0002103E05D
:1034B8000C4B5B58435004310B480C4B42189A4252
:1034C800F6D30B4A02E0002342F8043B094B9A4228
:1034D800F9D3FFF76DFF00F011F8FFF769FDFEE77C
:1034E800008001203436000800000020040000207D
:1034F80004000020B0010020FEE7000070B50D4E6A
:103508000D4CA41BA4100025A54209D10B4E0C4C50
:1035180000F038F8A41BA4100025A54205D170BD01
:1035280056F8253098470135EEE756F82530984784
:103538000135F2E72C3600082C3600082C36000836
:103548003036000810B501390244904201D10020FC
:1035580010BD10F8013B11F8014FA342F5D0181B1C
:1035680010BD02440346934200D1704703F8011B83
:10357800F9E7034611F8012B03F8012B002AF9D1CA
:1035880070470000F8B500BFF8BC08BC9E467047FD
:0C359800F8B500BFF8BC08BC9E467047A8
:1035A4000104020800101010041010100210101072
:1035B400084F4B204F4B204F4B204F4B0D0A0045DB
:1035C40072726F72204572726F72204572726F72DE
:1035D4002121210D0A00000000000000000001026A
:1035E40003040607080900000000010203040000A8
:1035F400A0860100400D0300801A060000350C006F
:1036040040420F0080841E0000093D0000127A0031
:103614000024F40000366E010048E801006CDC026E
:08362400E4CBFF7F0100000070
:04362C00AD010008E4
:043630008901000804
:0436340000093D004C
:04000005080034B10A
:00000001FF
