:100000000C9486000C9498000C9498000C94980022
:100010000C9498000C9498000C9498000C94980000
:100020000C9498000C9498000C9498000C949800F0
:100030000C9498000C9498000C9498000C949800E0
:100040000C9498000C9498000C9498000C949800D0
:100050000C9498000C9498000C9498000C949800C0
:100060000C9498000C9498002E412008048120CF15
:10007000F7FEFFFF20404B01E221C04B000022D0E1
:10008000FC8C02239900394124B99E860B25240655
:100090007FA62600000000270000000028000000C6
:1000A0000029000000002A000000002B00000000D2
:1000B0002C001273002D36B48000200F213F223F08
:1000C000230324082517263F2707280029002CC3CF
:1000D0002DC42EC52FC631203220332034203520A8
:1000E000362037203C3F3D0724D99E860B24DF9ED7
:1000F000860B5073E100E20050532B354310100281
:100100003034431010012A344310100111241FBE53
:10011000CFEFD8E0DEBFCDBF21E0A0E0B1E001C06D
:100120001D92A230B207E1F70E9488060C94B50632
:100130000C94000062E080E00E94480300C062E08E
:1001400080E00C944B03CF93C82F8091000166236D
:1001500011F0816001C08E7F8093000180910001C9
:100160008D7F809300016091000180E00E94D402A5
:10017000809100018F7780930001809100018F7B37
:1001800080930001809100018F7D80930001809118
:1001900000018F7E80930001C7FF05C080910001A0
:1001A000806880930001C6FF05C0809100018064D3
:1001B00080930001C5FF05C080910001806280939B
:1001C0000001C4FF05C0809100018061809300019F
:1001D0006091000180E00E94D4020E949A00809108
:1001E00000018F7780930001809100018F7B8093C5
:1001F0000001809100018F7D8093000180910001BA
:100200008F7E80930001C3FF05C08091000180684C
:1002100080930001C2FF05C080910001806480933B
:100220000001C1FF05C08091000180628093000140
:10023000C0FF05C080910001806180930001609142
:10024000000180E00E94D4020E949A008091000187
:1002500080618093000180910001806280930001A1
:10026000809100018064809300018091000180688A
:10027000809300016091000180E0CF910C94D40242
:10028000CF93809100018E7F8093000180910001C7
:100290008260809300016091000180E00E94D4029E
:1002A00062E080E00E94480300C064E080E00E94B9
:1002B0005F03811102C0C0E101C0C0E065E080E0E1
:1002C0000E945F03811101C0C06266E080E00E946D
:1002D0005F03811101C0C06467E080E00E945F039A
:1002E000811101C0C06862E080E00E944B0300C041
:1002F00062E080E00E94480300C064E080E00E9469
:100300005F03811101C0C16065E080E00E945F036E
:10031000811101C0C26066E080E00E945F0381112C
:1003200001C0C46067E080E00E945F03811101C0EA
:10033000C86062E080E00E944B038C2FCF9108954B
:100340000E94400187FDFCCF84E090E00197F1F727
:100350000C944001CF93C82F0E94A00160E08C2F25
:10036000CF910C94A300CF93C82F0E94A00161E00D
:100370008C2FCF910C94A300611102C0805809C04A
:10038000613011F4805405C0623011F48C5601C004
:100390008C520C94AA010E94A00190E0089581E083
:1003A0000C94AA01882321F080910001877F03C06B
:1003B000809100018860809300016091000180E0DD
:1003C0000C94D40282E00C94AA01CF93C82F0E940F
:1003D000A001CA30A1F4843148F090EC980F943118
:1003E00038F084518C3230F080E005C080E403C0E6
:1003F00084E101C084E58058CF910C94AA01843136
:1004000019F460E080EC0EC0843519F460E084E9F2
:1004100009C0883219F460E084ED04C0883621F404
:1004200060E080E80E94A3000E94A00161E08C2FA0
:10043000CF910C94A300CF93C0E48C2F0E94AA010B
:1004400080E00E94E501CF5FC038B9F7CF910895F1
:100450000F931F93CF93DF93883090F48B01880F15
:10046000880F880F805C0E94AA01E801085F1F4F77
:1004700089910E94E501C017D107D1F780E001C042
:1004800081E0DF91CF911F910F910895CF93DF937A
:10049000EC018991882319F00E94E501FACFDF91E0
:1004A000CF910895CF93DF93FC018491EF012196C2
:1004B000882321F00E94E501FE01F7CFDF91CF9163
:1004C00008951F93CF93DF93182F0E94B2021092CA
:1004D00000016091000180E00E94D40280E09DE76D
:1004E0000197F1F780910001806280930001809173
:1004F00000018061809300016091000180E00E9412
:10050000D4020E949A0080E097E20197F1F70E94DE
:100510009A00C0E8D0E0CE010197F1F70E949A005E
:10052000CE010197F1F7809100018F7E8093000149
:100530006091000180E00E94D4020E949A002197FD
:10054000F1F788E20E94AA0188E00E94AA010E94B5
:10055000CF0186E00E94AA01812FDF91CF911F91E8
:100560000C94AA010E9477038AE18A95F1F700C0F2
:10057000109201010895811103C080910101089535
:100580008FEF089581110EC0683060F480910101F1
:10059000082E000C990B02C0959587956A95E2F795
:1005A000817008958FEF0895CF9381110DC0C62FEC
:1005B000609301018EE40E947D038C2F0E94D00382
:1005C0000E94C80380E001C08FEFCF910895CF93C0
:1005D000811137C0E62FF0E0E41BF109EF3F8FEF08
:1005E000F8077CF16150673060F5442351F1842FA6
:1005F000C0910101BF016F5F7F4F022E000C330BD2
:10060000062E01C0220F0A94EAF741E050E002C032
:10061000440F551F8A95E2F74150510901C0440F1C
:100620006A95EAF72C274223C427C09301018EE480
:100630000E947D038C2F0E94D0030E94C80380E09B
:1006400001C08FEFCF910895CF93DF9381111CC02C
:100650006830D0F480910101C1E0D0E001C0CC0F3E
:100660006A95EAF7442311F0C82B02C0C095C8234D
:10067000C09301018EE40E947D038C2F0E94D00361
:100680000E94C80380E001C08FEFDF91CF910895F1
:1006900041E00C94240340E00C942403CF93811197
:1006A0000AC08FE40E947D030E94EB03C82FC0950F
:1006B0000E94C80301C0CFEF8C2FCF910895CF9334
:1006C000882311F08FEF11C06830E0F7C62F80E06B
:1006D0000E944E038F3FB1F3082E000C990B02C00D
:1006E00095958795CA95E2F78170CF9108951092FC
:1006F000B90088E88093B800089594EA9093BC000C
:100700009091BC0097FFFCCF9091B900987F9830F2
:1007100021F0903111F081E008958093BB0084E8CE
:100720008093BC008091BC0087FFFCCF8091B90012
:10073000887F883111F0803471F780E0089524EAD1
:1007400034E844E92093BC009091BC0097FFFCCFB3
:100750009091B900987F983011F0903199F780937B
:10076000BB003093BC009091BC0097FFFCCF9091F0
:10077000B900987F903211F0983539F44093BC005D
:100780009091BC0094FDFCCFDDCF08950C947D03C7
:1007900084E98093BC008091BC0084FDFCCF089567
:1007A0008093BB0084E88093BC008091BC0087FFED
:1007B000FCCF9091B900987F81E0983209F480E0F5
:1007C000089584EC8093BC008091BC0087FFFCCF2F
:1007D0008091BB00089584E88093BC008091BC00A8
:1007E00087FFFCCF8091BB000895982F992389F053
:1007F000292F282311F0589A01C058982FE73AE181
:1008000046E0215030404040E1F700C0000096959E
:10081000EDCF0895813021F483EA0E94F503FCCFE7
:1008200008958EBD0DB407FEFDCF8EB508952A98AC
:100830000E94110480E00E9411042A9A089580E029
:100840000E9417048170089585E00C941704CF93DB
:10085000C62F2A980E9411048C2F0E9411042A9AF4
:1008600081E0CF910895682F85E20C942704CF93FF
:10087000843060F4C82F86E00E941704CC0F897F73
:100880006C2F682B86E2CF910C942704CF910895AA
:10089000FF920F931F93CF93DF93F62E072F142F02
:1008A0002A980E941104CF2DD02FCE01810F911DC7
:1008B0008C01C017D10729F080E00E9411048993B0
:1008C000F8CF2A9ADF91CF911F910F91FF90089551
:1008D0000F931F93CF932A98C62F8C01CC2341F0FE
:1008E000F80184910E941104C1500F5F1F4FF6CF91
:1008F0002A9A81E0CF911F910F910895CF93C82F2D
:1009000087E00E9417048078CC2341F0811108C051
:1009100062E088EF90E0CF910C9468048111F8CFE9
:10092000CF91089562E086EF90E00E94680487E02E
:100930000E941704682F87E20E942704299880E00C
:100940000E941704682F616080E20E942704299AA0
:1009500008950F931F93CF93DF9380E00E947E044E
:10096000CAEBD0E0FE0131966491FE0184910E94B1
:1009700027042296F0E0C23EDF07A1F766E086E09A
:1009800091E00E94680466E08AEF90E00E946804AB
:1009900066E080E091E00E9468048DE10E94170407
:1009A000811105C062E082EF90E00E946804E7EEEA
:1009B000F0E06491E6EEF0E084910E942704E5EE19
:1009C000F0E06491E4EEF0E084910E94270481E07D
:1009D0000E947E04C4E7D0E00AEB10E065E0CE019F
:1009E0000E94680425960C171D07C1F76CE088E685
:1009F00090E00E94680465E08DEE90E00E9468043B
:100A000065E088EE90E00E9468042FEF80E792E0B6
:100A1000215080409040E1F700C0000088E00E9433
:100A20001704833621F083EA0E94F503FCCF80E0AF
:100A30000E947E04DF91CF911F910F910C9492043C
:100A4000219A2998509A84B18C6284B9249885B1EE
:100A5000846185B985B1877D85B980E58CBD8CB50C
:100A60008C7F8CBD8DB581608DBD2FEF8DE399E4BA
:100A7000215080409040E1F700C000000C94A90490
:100A800062E084EF90E00E946804299880E00E9470
:100A90001704682F6E7F80E20E942704299A089528
:100AA000FF920F931F93CF93DF93F62ED72FC42F70
:100AB0002A980E9411040F2D1D2FCC2339F0F80124
:100AC00081918F010E941104C150F7CF2A9A81E0D1
:100AD000DF91CF911F910F91FF900895CF93CFEFAA
:100AE000C80FC63070F482E00E94170461E070E025
:100AF00001C0660FCA95EAF7682B82E2CF910C9489
:100B00002704CF9108950F931F93CF93DF93413222
:100B100008F061C0CFEFC80FC63008F05CC02230CB
:100B200008F059C0022F142FD82F89E08D0FC23042
:100B300028F442E080620E94500505C0FB016081FC
:100B400080620E94270480E18D0F112321F1612F23
:100B500080620E94270481E00E94170461E070E037
:100B60000C2E01C0660F0A94EAF7002311F0682BDF
:100B700002C06095682381E20E9427048CE10E94F4
:100B8000170461E070E00C2E01C0660F0A94EAF7CA
:100B90006095682318C060E280620E94270481E0AB
:100BA0000E94170401E010E00C2E01C0000F0A940F
:100BB000EAF7682F602B81E20E9427048CE10E94F3
:100BC0001704682F602B8CE30E9427048C2F0E944F
:100BD0006E0581E001C080E0DF91CF911F910F9100
:100BE0000895CF93CFEFC80FC63078F482E00E940B
:100BF000170461E070E001C0660FCA95EAF76095DE
:100C0000682382E2CF910C942704CF9108951F931B
:100C1000CF93DF93EC01162F42E0BC0180E30E94EA
:100C2000500542E0BE018AE20E9450058CE10E941C
:100C30001704682F113011F4616001C06E7F8CE3DE
:100C4000DF91CF911F910C942704FF920F931F9374
:100C5000CF93DF93D82FF92EC62F142F87E10E9450
:100C6000170485FD1BC02A98111106C080EB0E9455
:100C700011040D2F1F2D02C080EAF9CFCC2339F0CB
:100C8000F80181918F010E941104C150F7CF2A9A77
:100C90009BB181E089278BB981E001C080E0DF91C1
:100CA000CF911F910F91FF9008950F931F93CF93B2
:100CB000DF938C0187E00E941704D82F8074D6FF41
:100CC00018C09BB181E089278BB980E60E94170488
:100CD000C82F482FB80181E60E94480487E10E948E
:100CE000170480FF05C06D2F606487E20E9427040F
:100CF0008C2FDF91CF911F910F91089562E084EFC7
:100D000090E00C94680462E086EF90E00C94680434
:100D1000CF93DF93CDB7DEB7A0970FB6F894DEBFC1
:100D20000FBECDBF78948DE00E9461020E94E20167
:100D300080E00E94D2010E94CF010E9420050E9403
:100D4000920488E00E943304519A599A12E0CE012D
:100D500001960E9455068823D1F38BB181278BB968
:0E0D6000CE0101960E944602F2CFF894FFCF1A
:00000001FF
