:100000000C9486000C949B000C949B000C949B0019
:100010000C949B000C949B000C949B000C949B00F4
:100020000C949B000C949B000C949B000C949B00E4
:100030000C949B000C949B000C949B000C949B00D4
:100040000C949B000C949B000C949B000C949B00C4
:100050000C949B000C949B000C949B000C949B00B4
:100060000C949B000C949B002E412008048120CF0F
:10007000F7FEFFFF20404B01E221C04B000022D0E1
:10008000FC8C02239900394124B99E860B25240655
:100090007FA62600000000270000000028000000C6
:1000A0000029000000002A000000002B00000000D2
:1000B0002C001273002D36B48000200F213F223F08
:1000C000230324082517263F2707280029002CC3CF
:1000D0002DC42EC52FC631203220332034203520A8
:1000E000362037203C3F3D0724D99E860B24DF9ED7
:1000F000860B5073E100E20050532B354310100281
:100100003034431010012A344310100111241FBE53
:10011000CFEFD8E0DEBFCDBF11E0A0E0B1E0E4EF6B
:10012000F6E002C005900D92AA30B107D9F70E94FF
:1001300030030C9478030C940000982F992389F0D5
:10014000292F282311F0589A01C058982FE73AE137
:1001500046E0215030404040E1F700C00000969555
:10016000EDCF0895813021F483EA0E949D00FCCFF9
:1001700008958EBD0DB407FEFDCF8EB508952A9863
:100180000E94B90080E00E94B9002A9A089580E098
:100190000E94BF008170089585E00C94BF00CF934A
:1001A000C62F2A980E94B9008C2F0E94B9002A9A63
:1001B00081E0CF910895682F85E20C94CF00CF9312
:1001C000843060F4C82F86E00E94BF00CC0F897F86
:1001D0006C2F682B86E2CF910C94CF00CF910895BD
:1001E000FF920F931F93CF93DF93F62E072F142FB9
:1001F0002A980E94B900CF2DD02FCE01810F911DDA
:100200008C01C017D10729F080E00E94B9008993C2
:10021000F8CF2A9ADF91CF911F910F91FF90089507
:100220000F931F93CF932A98C62F8C01CC2341F0B4
:10023000F80184910E94B900C1500F5F1F4FF6CFA3
:100240002A9A81E0CF911F910F910895CF93C82FE3
:1002500087E00E94BF008078CC2341F0811108C064
:1002600062E088EF90E0CF910C9410018111F8CFFB
:10027000CF91089562E086EF90E00E94100187E040
:100280000E94BF00682F87E20E94CF00299880E07B
:100290000E94BF00682F616080E20E94CF00299A0F
:1002A00008950F931F93CF93DF9380E00E94260160
:1002B000CAEBD0E0FE0131966491FE0184910E9468
:1002C000CF002296F0E0C23EDF07A1F766E086E0AD
:1002D00091E00E94100166E08AEF90E00E94100118
:1002E00066E080E091E00E9410018DE10E94BF0075
:1002F000811105C062E082EF90E00E941001E7EEFC
:10030000F0E06491E6EEF0E084910E94CF00E5EE2B
:10031000F0E06491E4EEF0E084910E94CF0081E08F
:100320000E942601C4E7D0E00AEB10E065E0CE01B0
:100330000E94100125960C171D07C1F76CE088E696
:1003400090E00E94100165E08DEE90E00E941001A7
:1003500065E088EE90E00E9410012FEF80E792E0C8
:10036000215080409040E1F700C0000088E00E94EA
:10037000BF00833621F083EA0E949D00FCCF80E01D
:100380000E942601DF91CF911F910F910C943A01A9
:10039000219A2998509A84B18C6284B9249885B1A5
:1003A000846185B985B1877D85B980E58CBD8CB5C3
:1003B0008C7F8CBD8DB581608DBD2FEF8DE399E471
:1003C000215080409040E1F700C000000C945101A2
:1003D00062E084EF90E00E941001299880E00E9482
:1003E000BF00682F6E7F80E20E94CF00299A089597
:1003F000FF920F931F93CF93DF93F62ED72FC42F27
:100400002A980E94B9000F2D1D2FCC2339F0F80136
:1004100081918F010E94B900C150F7CF2A9A81E0E3
:10042000DF91CF911F910F91FF900895CF93CFEF60
:10043000C80FC63070F482E00E94BF0061E070E037
:1004400001C0660FCA95EAF7682B82E2CF910C943F
:10045000CF00CF9108950F931F93CF93DF93413235
:1004600008F061C0CFEFC80FC63008F05CC0223082
:1004700008F059C0022F142FD82F89E08D0FC230F9
:1004800028F442E080620E94F80105C0FB0160810F
:1004900080620E94CF0080E18D0F112321F1612F36
:1004A00080620E94CF0081E00E94BF0061E070E0A6
:1004B0000C2E01C0660F0A94EAF7002311F0682B96
:1004C00002C06095682381E20E94CF008CE10E9407
:1004D000BF0061E070E00C2E01C0660F0A94EAF7DD
:1004E0006095682318C060E280620E94CF0081E0BE
:1004F0000E94BF0001E010E00C2E01C0000F0A9422
:10050000EAF7682F602B81E20E94CF008CE10E9405
:10051000BF00682F602B8CE30E94CF008C2F0E94BD
:10052000160281E001C080E0DF91CF911F910F9111
:100530000895CF93CFEFC80FC63078F482E00E94C1
:10054000BF0061E070E001C0660FCA95EAF76095F0
:10055000682382E2CF910C94CF00CF9108951F932E
:10056000CF93DF93EC01162F42E0BC0180E30E94A1
:10057000F80142E0BE018AE20E94F8018CE10E948B
:10058000BF00682F113011F4616001C06E7F8CE3F1
:10059000DF91CF911F910C94CF00FF920F931F9387
:1005A000CF93DF93D82FF92EC62F142F87E10E9407
:1005B000BF0085FD1BC02A98111106C080EB0E9468
:1005C000B9000D2F1F2D02C080EAF9CFCC2339F0DE
:1005D000F80181918F010E94B900C150F7CF2A9A8A
:1005E0009BB181E089278BB981E001C080E0DF9178
:1005F000CF911F910F91FF9008950F931F93CF9369
:10060000DF938C0187E00E94BF00D82F8074D6FF53
:1006100018C09BB181E089278BB980E60E94BF009A
:10062000C82F482FB80181E60E94F00087E10E94A0
:10063000BF0080FF05C06D2F606487E20E94CF007D
:100640008C2FDF91CF911F910F91089562E084EF7D
:1006500090E00C94100162E086EF90E00C941001A1
:10066000CF93DF93CDB7DEB72A970FB6F894DEBFEE
:100670000FBECDBF519A599A85E0E0E0F1E0DE016E
:10068000169601900D928A95E1F785E0E5E0F1E09C
:10069000DE01119601900D928A95E1F70E94C80142
:1006A0000E94E80188E00E94DB0083E00E94DF00F6
:1006B000599840E062E0CE0106960E94CD022FEFED
:1006C00089E698E1215080409040E1F700C00000A9
:1006D00040E062E0CE0101960E94CD022FEF89E654
:1006E00098E1215080409040E1F700C00000E1CF48
:0406F000F894FFCFAC
:0A06F4003161357479324173747975
:00000001FF
