:100000000C9434000C9451000C9451000C94510049
:100010000C9451000C9451000C9451000C9451001C
:100020000C9451000C9451000C9451000C9451000C
:100030000C9451000C9451000C9451000C945100FC
:100040000C9451000C9451000C9451000C945100EC
:100050000C9451000C9451000C9451000C945100DC
:100060000C9451000C94510011241FBECFEFD8E026
:10007000DEBFCDBF11E0A0E0B1E0E4E8F7E002C0F0
:1000800005900D92AE30B107D9F721E0AEE0B1E0B6
:1000900001C01D92A031B207E1F70E94AE030C949B
:1000A000C0030C94000062E080E00E94010300C0E5
:1000B00062E080E00C940403CF93C82F80910E017E
:1000C000662311F0816001C08E7F80930E018091C4
:1000D0000E018D7F80930E0160910E0180E00E94E1
:1000E0008D0280910E018F7780930E0180910E0119
:1000F0008F7B80930E0180910E018F7D80930E0186
:1001000080910E018F7E80930E01C7FF05C0809104
:100110000E01806880930E01C6FF05C080910E011C
:10012000806480930E01C5FF05C080910E0180623E
:1001300080930E01C4FF05C080910E018061809301
:100140000E0160910E0180E00E948D020E9453001A
:1001500080910E018F7780930E0180910E018F7B2D
:1001600080930E0180910E018F7D80930E0180910E
:100170000E018F7E80930E01C3FF05C080910E019A
:10018000806880930E01C2FF05C080910E018064DB
:1001900080930E01C1FF05C080910E0180628093A3
:1001A0000E01C0FF05C080910E01806180930E0199
:1001B00060910E0180E00E948D020E9453008091A8
:1001C0000E01806180930E0180910E018062809308
:1001D0000E0180910E01806480930E0180910E01CA
:1001E000806880930E0160910E0180E0CF910C94A5
:1001F0008D02CF9380910E018E7F80930E018091AE
:100200000E01826080930E0160910E0180E00E94D9
:100210008D0262E080E00E94010300C064E080E0A3
:100220000E941803811102C0C0E101C0C0E065E076
:1002300080E00E941803811101C0C06266E080E086
:100240000E941803811101C0C06467E080E00E9431
:100250001803811101C0C06862E080E00E940403BD
:1002600000C062E080E00E94010300C064E080E022
:100270000E941803811101C0C16065E080E00E9406
:100280001803811101C0C26066E080E00E9418037B
:10029000811101C0C46067E080E00E9418038111F1
:1002A00001C0C86062E080E00E9404038C2FCF91FF
:1002B00008950E94F90087FDFCCF84E090E001974B
:1002C000F1F70C94F900CF93C82F0E94590160E018
:1002D0008C2FCF910C945C00CF93C82F0E945901B2
:1002E00061E08C2FCF910C945C00611102C08058AA
:1002F00009C0613011F4805405C0623011F48C568D
:1003000001C08C520C9463010E94590190E0089541
:1003100081E00C946301882321F080910E01877F96
:1003200003C080910E01886080930E0160910E01E0
:1003300080E00C948D0282E00C946301CF93C82F6F
:100340000E945901CA30A1F4843148F090EC980F12
:10035000943138F084518C3230F080E005C080E474
:1003600003C084E101C084E58058CF910C946301FF
:10037000843119F460E080EC0EC0843519F460E03B
:1003800084E909C0883219F460E084ED04C088363D
:1003900021F460E080E80E945C000E94590161E065
:1003A0008C2FCF910C945C00CF93C0E48C2F0E94D3
:1003B000630180E00E949E01CF5FC038B9F7CF9102
:1003C00008950F931F93CF93DF93883090F48B01A0
:1003D000880F880F880F805C0E946301E801085F26
:1003E0001F4F89910E949E01C017D107D1F780E06D
:1003F00001C081E0DF91CF911F910F910895CF93BC
:10040000DF93EC018991882319F00E949E01FACFB5
:10041000DF91CF910895CF93DF93FC018491EF0199
:100420002196882321F00E949E01FE01F7CFDF91E3
:10043000CF9108951F93CF93DF93182F0E946B02E3
:1004400010920E0160910E0180E00E948D0280E00A
:100450009DE70197F1F780910E01806280930E0174
:1004600080910E01806180930E0160910E0180E009
:100470000E948D020E94530080E097E20197F1F7FD
:100480000E945300C0E8D0E0CE010197F1F70E942E
:100490005300CE010197F1F780910E018F7E80937A
:1004A0000E0160910E0180E00E948D020E945300B7
:1004B0002197F1F788E20E94630188E00E946301BE
:1004C0000E94880186E00E946301812FDF91CF9115
:1004D0001F910C9463010E9430038AE18A95F1F721
:1004E00000C010920F010895811103C080910F0187
:1004F00008958FEF089581110EC0683060F48091E7
:100500000F01082E000C990B02C0959587956A95EE
:10051000E2F7817008958FEF0895CF9381110DC098
:10052000C62F60930F018EE40E9436038C2F0E9429
:1005300089030E94810380E001C08FEFCF9108956D
:10054000CF93811137C0E62FF0E0E41BF109EF3FB4
:100550008FEFF8077CF16150673060F5442351F16B
:10056000842FC0910F01BF016F5F7F4F022E000CDF
:10057000330B062E01C0220F0A94EAF741E050E047
:1005800002C0440F551F8A95E2F74150510901C03E
:10059000440F6A95EAF72C274223C427C0930F0122
:1005A0008EE40E9436038C2F0E9489030E948103EF
:1005B00080E001C08FEFCF910895CF93DF93811139
:1005C0001CC06830D0F480910F01C1E0D0E001C0C0
:1005D000CC0F6A95EAF7442311F0C82B02C0C095EE
:1005E000C823C0930F018EE40E9436038C2F0E9413
:1005F00089030E94810380E001C08FEFDF91CF91DA
:10060000089541E00C94DD0240E00C94DD02CF93AC
:1006100081110AC08FE40E9436030E94A403C82FF0
:10062000C0950E94810301C0CFEF8C2FCF91089518
:10063000CF93882311F08FEF11C06830E0F7C62FF9
:1006400080E00E9407038F3FB1F3082E000C990B46
:1006500002C095958795CA95E2F78170CF9108956C
:100660001092B90088E88093B800089594EA9093B6
:10067000BC009091BC0097FFFCCF9091B900987F8F
:10068000983021F0903111F081E008958093BB0003
:1006900084E88093BC008091BC0087FFFCCF8091F0
:1006A000B900887F883111F0803471F780E00895B7
:1006B00024EA34E844E92093BC009091BC0097FF01
:1006C000FCCF9091B900987F983011F0903199F754
:1006D0008093BB003093BC009091BC0097FFFCCF8F
:1006E0009091B900987F903211F0983539F4409389
:1006F000BC009091BC0094FDFCCFDDCF08950C941C
:10070000360384E98093BC008091BC0084FDFCCF5B
:1007100008958093BB0084E88093BC008091BC0066
:1007200087FFFCCF9091B900987F81E0983209F45F
:1007300080E0089584EC8093BC008091BC0087FF2A
:10074000FCCF8091BB00089584E88093BC00809129
:10075000BC0087FFFCCF8091BB00089578948DE0AA
:100760000E941A020E949B0180E00E948B0163E0BC
:1007700081E00E94750180E091E00E94FF01F7CFC7
:04078000F894FFCF1B
:0E0784006B7572776120647A69616C610000A8
:00000001FF
